{
  "address": "0x3982994d248Fe9eF42aFEB80ef5D6bd5B8186b33",
  "abi": [
    {
      "inputs": [
        {
          "internalType": "address",
          "name": "target",
          "type": "address"
        }
      ],
      "name": "AddressEmptyCode",
      "type": "error"
    },
    {
      "inputs": [
        {
          "internalType": "address",
          "name": "account",
          "type": "address"
        }
      ],
      "name": "AddressInsufficientBalance",
      "type": "error"
    },
    {
      "inputs": [],
      "name": "FailedInnerCall",
      "type": "error"
    },
    {
      "inputs": [
        {
          "internalType": "address",
          "name": "token",
          "type": "address"
        }
      ],
      "name": "SafeERC20FailedOperation",
      "type": "error"
    },
    {
      "anonymous": false,
      "inputs": [
        {
          "indexed": true,
          "internalType": "uint256",
          "name": "height",
          "type": "uint256"
        },
        {
          "indexed": false,
          "internalType": "bytes32",
          "name": "selfHash",
          "type": "bytes32"
        },
        {
          "indexed": true,
          "internalType": "bytes32",
          "name": "parentHash",
          "type": "bytes32"
        },
        {
          "indexed": true,
          "internalType": "address",
          "name": "relayer",
          "type": "address"
        }
      ],
      "name": "BlockAdded",
      "type": "event"
    },
    {
      "anonymous": false,
      "inputs": [
        {
          "indexed": true,
          "internalType": "uint256",
          "name": "height",
          "type": "uint256"
        },
        {
          "indexed": false,
          "internalType": "bytes32",
          "name": "selfHash",
          "type": "bytes32"
        },
        {
          "indexed": false,
          "internalType": "bytes32",
          "name": "parentHash",
          "type": "bytes32"
        },
        {
          "indexed": true,
          "internalType": "address",
          "name": "relayer",
          "type": "address"
        },
        {
          "indexed": false,
          "internalType": "uint256",
          "name": "rewardAmountTNT",
          "type": "uint256"
        },
        {
          "indexed": false,
          "internalType": "uint256",
          "name": "rewardAmountTDT",
          "type": "uint256"
        }
      ],
      "name": "BlockFinalized",
      "type": "event"
    },
    {
      "anonymous": false,
      "inputs": [
        {
          "indexed": false,
          "internalType": "uint8",
          "name": "version",
          "type": "uint8"
        }
      ],
      "name": "Initialized",
      "type": "event"
    },
    {
      "anonymous": false,
      "inputs": [
        {
          "indexed": false,
          "internalType": "uint256",
          "name": "oldBaseQueries",
          "type": "uint256"
        },
        {
          "indexed": false,
          "internalType": "uint256",
          "name": "newBaseQueries",
          "type": "uint256"
        }
      ],
      "name": "NewBaseQueries",
      "type": "event"
    },
    {
      "anonymous": false,
      "inputs": [
        {
          "indexed": false,
          "internalType": "uint256",
          "name": "oldEpochLength",
          "type": "uint256"
        },
        {
          "indexed": false,
          "internalType": "uint256",
          "name": "newEpochLength",
          "type": "uint256"
        }
      ],
      "name": "NewEpochLength",
      "type": "event"
    },
    {
      "anonymous": false,
      "inputs": [
        {
          "indexed": false,
          "internalType": "uint256",
          "name": "oldFinalizationParameter",
          "type": "uint256"
        },
        {
          "indexed": false,
          "internalType": "uint256",
          "name": "newFinalizationParameter",
          "type": "uint256"
        }
      ],
      "name": "NewFinalizationParameter",
      "type": "event"
    },
    {
      "anonymous": false,
      "inputs": [
        {
          "indexed": false,
          "internalType": "bytes32",
          "name": "txId",
          "type": "bytes32"
        },
        {
          "indexed": false,
          "internalType": "uint256",
          "name": "blockHeight",
          "type": "uint256"
        },
        {
          "indexed": false,
          "internalType": "uint256",
          "name": "paidFee",
          "type": "uint256"
        }
      ],
      "name": "NewQuery",
      "type": "event"
    },
    {
      "anonymous": false,
      "inputs": [
        {
          "indexed": false,
          "internalType": "uint256",
          "name": "oldRelayerPercentageFee",
          "type": "uint256"
        },
        {
          "indexed": false,
          "internalType": "uint256",
          "name": "newRelayerPercentageFee",
          "type": "uint256"
        }
      ],
      "name": "NewRelayerPercentageFee",
      "type": "event"
    },
    {
      "anonymous": false,
      "inputs": [
        {
          "indexed": false,
          "internalType": "uint256",
          "name": "oldRewardAmountInTDT",
          "type": "uint256"
        },
        {
          "indexed": false,
          "internalType": "uint256",
          "name": "newRewardAmountInTDT",
          "type": "uint256"
        }
      ],
      "name": "NewRewardAmountInTDT",
      "type": "event"
    },
    {
      "anonymous": false,
      "inputs": [
        {
          "indexed": false,
          "internalType": "uint256",
          "name": "oldSubmissionGasUsed",
          "type": "uint256"
        },
        {
          "indexed": false,
          "internalType": "uint256",
          "name": "newSubmissionGasUsed",
          "type": "uint256"
        }
      ],
      "name": "NewSubmissionGasUsed",
      "type": "event"
    },
    {
      "anonymous": false,
      "inputs": [
        {
          "indexed": false,
          "internalType": "address",
          "name": "oldTeleportDAOToken",
          "type": "address"
        },
        {
          "indexed": false,
          "internalType": "address",
          "name": "newTeleportDAOToken",
          "type": "address"
        }
      ],
      "name": "NewTeleportDAOToken",
      "type": "event"
    },
    {
      "anonymous": false,
      "inputs": [
        {
          "indexed": true,
          "internalType": "address",
          "name": "previousOwner",
          "type": "address"
        },
        {
          "indexed": true,
          "internalType": "address",
          "name": "newOwner",
          "type": "address"
        }
      ],
      "name": "OwnershipTransferred",
      "type": "event"
    },
    {
      "anonymous": false,
      "inputs": [
        {
          "indexed": false,
          "internalType": "address",
          "name": "account",
          "type": "address"
        }
      ],
      "name": "Paused",
      "type": "event"
    },
    {
      "anonymous": false,
      "inputs": [
        {
          "indexed": false,
          "internalType": "address",
          "name": "account",
          "type": "address"
        }
      ],
      "name": "Unpaused",
      "type": "event"
    },
    {
      "inputs": [],
      "name": "TeleportDAOToken",
      "outputs": [
        {
          "internalType": "address",
          "name": "",
          "type": "address"
        }
      ],
      "stateMutability": "view",
      "type": "function"
    },
    {
      "inputs": [
        {
          "internalType": "bytes",
          "name": "_anchor",
          "type": "bytes"
        },
        {
          "internalType": "bytes",
          "name": "_headers",
          "type": "bytes"
        }
      ],
      "name": "addHeaders",
      "outputs": [
        {
          "internalType": "bool",
          "name": "",
          "type": "bool"
        }
      ],
      "stateMutability": "nonpayable",
      "type": "function"
    },
    {
      "inputs": [
        {
          "internalType": "bytes",
          "name": "_oldPeriodStartHeader",
          "type": "bytes"
        },
        {
          "internalType": "bytes",
          "name": "_oldPeriodEndHeader",
          "type": "bytes"
        },
        {
          "internalType": "bytes",
          "name": "_headers",
          "type": "bytes"
        }
      ],
      "name": "addHeadersWithRetarget",
      "outputs": [
        {
          "internalType": "bool",
          "name": "",
          "type": "bool"
        }
      ],
      "stateMutability": "nonpayable",
      "type": "function"
    },
    {
      "inputs": [],
      "name": "availableTDT",
      "outputs": [
        {
          "internalType": "uint256",
          "name": "",
          "type": "uint256"
        }
      ],
      "stateMutability": "view",
      "type": "function"
    },
    {
      "inputs": [],
      "name": "availableTNT",
      "outputs": [
        {
          "internalType": "uint256",
          "name": "",
          "type": "uint256"
        }
      ],
      "stateMutability": "view",
      "type": "function"
    },
    {
      "inputs": [],
      "name": "baseQueries",
      "outputs": [
        {
          "internalType": "uint256",
          "name": "",
          "type": "uint256"
        }
      ],
      "stateMutability": "view",
      "type": "function"
    },
    {
      "inputs": [
        {
          "internalType": "bytes32",
          "name": "_txid",
          "type": "bytes32"
        },
        {
          "internalType": "uint256",
          "name": "_blockHeight",
          "type": "uint256"
        },
        {
          "internalType": "bytes",
          "name": "_intermediateNodes",
          "type": "bytes"
        },
        {
          "internalType": "uint256",
          "name": "_index",
          "type": "uint256"
        }
      ],
      "name": "checkTxProof",
      "outputs": [
        {
          "internalType": "bool",
          "name": "",
          "type": "bool"
        }
      ],
      "stateMutability": "payable",
      "type": "function"
    },
    {
      "inputs": [],
      "name": "currentEpochQueries",
      "outputs": [
        {
          "internalType": "uint256",
          "name": "",
          "type": "uint256"
        }
      ],
      "stateMutability": "view",
      "type": "function"
    },
    {
      "inputs": [],
      "name": "epochLength",
      "outputs": [
        {
          "internalType": "uint256",
          "name": "",
          "type": "uint256"
        }
      ],
      "stateMutability": "view",
      "type": "function"
    },
    {
      "inputs": [],
      "name": "finalizationParameter",
      "outputs": [
        {
          "internalType": "uint256",
          "name": "",
          "type": "uint256"
        }
      ],
      "stateMutability": "view",
      "type": "function"
    },
    {
      "inputs": [
        {
          "internalType": "bytes32",
          "name": "_hash",
          "type": "bytes32"
        }
      ],
      "name": "findHeight",
      "outputs": [
        {
          "internalType": "uint256",
          "name": "",
          "type": "uint256"
        }
      ],
      "stateMutability": "view",
      "type": "function"
    },
    {
      "inputs": [
        {
          "internalType": "uint256",
          "name": "_height",
          "type": "uint256"
        },
        {
          "internalType": "uint256",
          "name": "_index",
          "type": "uint256"
        }
      ],
      "name": "getBlockHeaderFee",
      "outputs": [
        {
          "internalType": "uint256",
          "name": "",
          "type": "uint256"
        }
      ],
      "stateMutability": "view",
      "type": "function"
    },
    {
      "inputs": [
        {
          "internalType": "uint256",
          "name": "_height",
          "type": "uint256"
        },
        {
          "internalType": "uint256",
          "name": "_index",
          "type": "uint256"
        }
      ],
      "name": "getBlockHeaderHash",
      "outputs": [
        {
          "internalType": "bytes32",
          "name": "",
          "type": "bytes32"
        }
      ],
      "stateMutability": "view",
      "type": "function"
    },
    {
      "inputs": [
        {
          "internalType": "uint256",
          "name": "_height",
          "type": "uint256"
        },
        {
          "internalType": "uint256",
          "name": "_index",
          "type": "uint256"
        }
      ],
      "name": "getBlockHeaderHashContract",
      "outputs": [
        {
          "internalType": "bytes32",
          "name": "",
          "type": "bytes32"
        }
      ],
      "stateMutability": "payable",
      "type": "function"
    },
    {
      "inputs": [
        {
          "internalType": "uint256",
          "name": "_height",
          "type": "uint256"
        }
      ],
      "name": "getNumberOfSubmittedHeaders",
      "outputs": [
        {
          "internalType": "uint256",
          "name": "",
          "type": "uint256"
        }
      ],
      "stateMutability": "view",
      "type": "function"
    },
    {
      "inputs": [],
      "name": "initialHeight",
      "outputs": [
        {
          "internalType": "uint256",
          "name": "",
          "type": "uint256"
        }
      ],
      "stateMutability": "view",
      "type": "function"
    },
    {
      "inputs": [
        {
          "internalType": "bytes",
          "name": "_genesisHeader",
          "type": "bytes"
        },
        {
          "internalType": "uint256",
          "name": "_height",
          "type": "uint256"
        },
        {
          "internalType": "bytes32",
          "name": "_periodStart",
          "type": "bytes32"
        },
        {
          "internalType": "uint256",
          "name": "_finalizationParameter",
          "type": "uint256"
        },
        {
          "internalType": "uint256",
          "name": "_relayerPercentageFee",
          "type": "uint256"
        },
        {
          "internalType": "uint256",
          "name": "_submissionGasUsed",
          "type": "uint256"
        }
      ],
      "name": "initialize",
      "outputs": [],
      "stateMutability": "nonpayable",
      "type": "function"
    },
    {
      "inputs": [],
      "name": "lastEpochQueries",
      "outputs": [
        {
          "internalType": "uint256",
          "name": "",
          "type": "uint256"
        }
      ],
      "stateMutability": "view",
      "type": "function"
    },
    {
      "inputs": [],
      "name": "lastSubmittedHeight",
      "outputs": [
        {
          "internalType": "uint256",
          "name": "",
          "type": "uint256"
        }
      ],
      "stateMutability": "view",
      "type": "function"
    },
    {
      "inputs": [],
      "name": "owner",
      "outputs": [
        {
          "internalType": "address",
          "name": "",
          "type": "address"
        }
      ],
      "stateMutability": "view",
      "type": "function"
    },
    {
      "inputs": [
        {
          "internalType": "bytes",
          "name": "_anchor",
          "type": "bytes"
        },
        {
          "internalType": "bytes",
          "name": "_headers",
          "type": "bytes"
        }
      ],
      "name": "ownerAddHeaders",
      "outputs": [
        {
          "internalType": "bool",
          "name": "",
          "type": "bool"
        }
      ],
      "stateMutability": "nonpayable",
      "type": "function"
    },
    {
      "inputs": [
        {
          "internalType": "bytes",
          "name": "_oldPeriodStartHeader",
          "type": "bytes"
        },
        {
          "internalType": "bytes",
          "name": "_oldPeriodEndHeader",
          "type": "bytes"
        },
        {
          "internalType": "bytes",
          "name": "_headers",
          "type": "bytes"
        }
      ],
      "name": "ownerAddHeadersWithRetarget",
      "outputs": [
        {
          "internalType": "bool",
          "name": "",
          "type": "bool"
        }
      ],
      "stateMutability": "nonpayable",
      "type": "function"
    },
    {
      "inputs": [],
      "name": "pauseRelay",
      "outputs": [],
      "stateMutability": "nonpayable",
      "type": "function"
    },
    {
      "inputs": [],
      "name": "paused",
      "outputs": [
        {
          "internalType": "bool",
          "name": "",
          "type": "bool"
        }
      ],
      "stateMutability": "view",
      "type": "function"
    },
    {
      "inputs": [],
      "name": "relayGenesisHash",
      "outputs": [
        {
          "internalType": "bytes32",
          "name": "",
          "type": "bytes32"
        }
      ],
      "stateMutability": "view",
      "type": "function"
    },
    {
      "inputs": [],
      "name": "relayerPercentageFee",
      "outputs": [
        {
          "internalType": "uint256",
          "name": "",
          "type": "uint256"
        }
      ],
      "stateMutability": "view",
      "type": "function"
    },
    {
      "inputs": [],
      "name": "renounceOwnership",
      "outputs": [],
      "stateMutability": "nonpayable",
      "type": "function"
    },
    {
      "inputs": [],
      "name": "rewardAmountInTDT",
      "outputs": [
        {
          "internalType": "uint256",
          "name": "",
          "type": "uint256"
        }
      ],
      "stateMutability": "view",
      "type": "function"
    },
    {
      "inputs": [
        {
          "internalType": "uint256",
          "name": "_baseQueries",
          "type": "uint256"
        }
      ],
      "name": "setBaseQueries",
      "outputs": [],
      "stateMutability": "nonpayable",
      "type": "function"
    },
    {
      "inputs": [
        {
          "internalType": "uint256",
          "name": "_epochLength",
          "type": "uint256"
        }
      ],
      "name": "setEpochLength",
      "outputs": [],
      "stateMutability": "nonpayable",
      "type": "function"
    },
    {
      "inputs": [
        {
          "internalType": "uint256",
          "name": "_finalizationParameter",
          "type": "uint256"
        }
      ],
      "name": "setFinalizationParameter",
      "outputs": [],
      "stateMutability": "nonpayable",
      "type": "function"
    },
    {
      "inputs": [
        {
          "internalType": "uint256",
          "name": "_relayerPercentageFee",
          "type": "uint256"
        }
      ],
      "name": "setRelayerPercentageFee",
      "outputs": [],
      "stateMutability": "nonpayable",
      "type": "function"
    },
    {
      "inputs": [
        {
          "internalType": "uint256",
          "name": "_rewardAmountInTDT",
          "type": "uint256"
        }
      ],
      "name": "setRewardAmountInTDT",
      "outputs": [],
      "stateMutability": "nonpayable",
      "type": "function"
    },
    {
      "inputs": [
        {
          "internalType": "uint256",
          "name": "_submissionGasUsed",
          "type": "uint256"
        }
      ],
      "name": "setSubmissionGasUsed",
      "outputs": [],
      "stateMutability": "nonpayable",
      "type": "function"
    },
    {
      "inputs": [
        {
          "internalType": "address",
          "name": "_TeleportDAOToken",
          "type": "address"
        }
      ],
      "name": "setTeleportDAOToken",
      "outputs": [],
      "stateMutability": "nonpayable",
      "type": "function"
    },
    {
      "inputs": [],
      "name": "submissionGasUsed",
      "outputs": [
        {
          "internalType": "uint256",
          "name": "",
          "type": "uint256"
        }
      ],
      "stateMutability": "view",
      "type": "function"
    },
    {
      "inputs": [
        {
          "internalType": "address",
          "name": "newOwner",
          "type": "address"
        }
      ],
      "name": "transferOwnership",
      "outputs": [],
      "stateMutability": "nonpayable",
      "type": "function"
    },
    {
      "inputs": [],
      "name": "unpauseRelay",
      "outputs": [],
      "stateMutability": "nonpayable",
      "type": "function"
    }
  ],
  "transactionHash": "0x59f7f9dea4e5e2415ba0533894001579bcfc4ef28e55f26aa15615d3022313f9",
  "args": [],
  "numDeployments": 1,
  "solcInputHash": "b5e321c99180e892897b2ffe689b1811",
  "bytecode": "0x608060405234801561000f575f80fd5b50613e8a8061001d5f395ff3fe60806040526004361061021d575f3560e01c8063926d44e21161011e578063c20dc664116100a8578063efbc7be41161006d578063efbc7be4146105be578063f02f62fd146105d3578063f2fde38b146105f2578063fa041af514610611578063fd9c6e8514610626575f80fd5b8063c20dc66414610543578063d0a8973914610558578063dc04442214610577578063e2761af014610596578063e3282524146105ab575f80fd5b8063ae6e5eb0116100ee578063ae6e5eb0146104b3578063ae96c2ae146104d2578063b36161bd146104e6578063b9bbd9bd14610505578063b9e88ac114610524575f80fd5b8063926d44e21461043f5780639f1564141461046a578063a072bc501461047f578063a3db54eb14610494575f80fd5b806360b5c390116101aa57806371d6c95b1161016f57806371d6c95b146103b15780637fa637fc146103d0578063882a5ee0146103ef5780638da5cb5b14610403578063901186bb14610420575f80fd5b806360b5c3901461032b578063659416831461034a57806365da41b914610369578063665b634f14610388578063715018a61461039d575f80fd5b806354eea796116101f057806354eea796146102b957806357d775f8146102d85780635b732892146102ed5780635b88a0e5146103025780635c975abb14610314575f80fd5b8063108f438d146102215780632f796d901461025d5780634354da2514610280578063465e7559146102a3575b5f80fd5b34801561022c575f80fd5b5060d354610240906001600160a01b031681565b6040516001600160a01b0390911681526020015b60405180910390f35b348015610268575f80fd5b5061027260ca5481565b604051908152602001610254565b61029361028e366004613795565b61063b565b6040519015158152602001610254565b3480156102ae575f80fd5b506102b76108da565b005b3480156102c4575f80fd5b506102b76102d33660046137eb565b6108ec565b3480156102e3575f80fd5b5061027260cf5481565b3480156102f8575f80fd5b5061027260d15481565b34801561030d575f80fd5b5047610272565b34801561031f575f80fd5b5060975460ff16610293565b348015610336575f80fd5b506102726103453660046137eb565b610900565b348015610355575f80fd5b506102b76103643660046137eb565b610910565b348015610374575f80fd5b50610293610383366004613802565b610921565b348015610393575f80fd5b5061027260cd5481565b3480156103a8575f80fd5b506102b7610a03565b3480156103bc575f80fd5b506102b76103cb36600461387d565b610a0b565b3480156103db575f80fd5b506102936103ea36600461394b565b610ca3565b3480156103fa575f80fd5b50610272610dbb565b34801561040e575f80fd5b506033546001600160a01b0316610240565b34801561042b575f80fd5b506102b761043a3660046137eb565b610e2a565b34801561044a575f80fd5b506102726104593660046137eb565b5f90815260d5602052604090205490565b348015610475575f80fd5b5061027260d25481565b34801561048a575f80fd5b5061027260cb5481565b34801561049f575f80fd5b506102b76104ae3660046137eb565b610e3b565b3480156104be575f80fd5b506102936104cd36600461394b565b610e4c565b3480156104dd575f80fd5b506102b7610e5d565b3480156104f1575f80fd5b506102b76105003660046137eb565b610e6d565b348015610510575f80fd5b5061027261051f3660046139de565b610e7e565b34801561052f575f80fd5b506102b761053e3660046137eb565b610f04565b34801561054e575f80fd5b5061027260ce5481565b348015610563575f80fd5b506102726105723660046139de565b610f15565b348015610582575f80fd5b506102b76105913660046139fe565b610f55565b3480156105a1575f80fd5b5061027260c95481565b6102726105b93660046139de565b610f66565b3480156105c9575f80fd5b5061027260d45481565b3480156105de575f80fd5b506102936105ed366004613802565b611035565b3480156105fd575f80fd5b506102b761060c3660046139fe565b611046565b34801561061c575f80fd5b5061027260d05481565b348015610631575f80fd5b5061027260cc5481565b5f6106446110bc565b61064c611115565b856106ac5760405162461bcd60e51b815260206004820152602560248201527f426974636f696e52656c61793a20747869642073686f756c64206265206e6f6e6044820152642d7a65726f60d81b60648201526084015b60405180910390fd5b60ca546106ba906001613a38565b60cb546106c79087613a38565b1061072e5760405162461bcd60e51b815260206004820152603160248201527f426974636f696e52656c61793a20626c6f636b206973206e6f742066696e616c604482015270697a6564206f6e207468652072656c617960781b60648201526084016106a3565b60c9548510156107b95760405162461bcd60e51b815260206004820152604a60248201527f426974636f696e52656c61793a2074686520726571756573746564206865696760448201527f6874206973206e6f74207375626d6974746564206f6e207468652072656c61796064820152692028746f6f206f6c642960b01b608482015260a4016106a3565b5f85815260d56020526040812080546107f0919083906107db576107db613a4b565b905f5260205f2090600502016004015461115b565b60408051898152602081018990529081018290529091507f171c7e89f8a58af73276553913c8f63b7270aacd03134a80a0e1d46a6b783cd39060600160405180910390a15f86815260d5602052604081208054829061085157610851613a4b565b905f5260205f2090600502016002015490505f6108b46108a95f89898080601f0160208091040260200160405190810160405280939291908181526020018383808284375f9201919091525092939250506111e79050565b62ffffff1916611201565b90506108c28983838861126e565b93505050506108d16001606555565b95945050505050565b6108e26112ce565b6108ea611328565b565b6108f46112ce565b6108fd81611382565b50565b5f61090a82611412565b92915050565b6109186112ce565b6108fd81611480565b5f61092a6110bc565b610932611115565b5f6109836109785f86868080601f0160208091040260200160405190810160405280939291908181526020018383808284375f9201919091525092939250506111e79050565b62ffffff1916611510565b90505f6109d66109cb5f89898080601f0160208091040260200160405190810160405280939291908181526020018383808284375f9201919091525092939250506111e79050565b62ffffff1916611557565b90506109e2828261158d565b6109ed81835f611636565b925050506109fb6001606555565b949350505050565b6108ea6112ce565b5f54610100900460ff1615808015610a2957505f54600160ff909116105b80610a425750303b158015610a4257505f5460ff166001145b610aa55760405162461bcd60e51b815260206004820152602e60248201527f496e697469616c697a61626c653a20636f6e747261637420697320616c72656160448201526d191e481a5b9a5d1a585b1a5e995960921b60648201526084016106a3565b5f805460ff191660011790558015610ac6575f805461ff0019166101001790555b610ace611b47565b610ad6611b75565b610ade611ba3565b5f610aec6109cb89836111e7565b90505f610afe62ffffff198316611bd1565b60d48190559050610b356040805160a0810182525f8082526020820181905291810182905260608101829052608081019190915290565b818152610b4762ffffff198416611c31565b6020820152610b5b62ffffff198416611c52565b6040820152336001600160a01b03908116606083019081525f608084018181528c825260d5602090815260408084208054600180820183559186528386208951600590920201908155838901519181019190915581880151600282015594516003860180546001600160a01b0319169190971617909555905160049093019290925584815260d790915220899055610bf56107e08a613a73565b610bff908a613a86565b5f89815260d76020526040902055610c1687611c73565b60c989905560ca899055610c2986611d22565b610c346107e0611382565b610c3f60cf54611480565b60d05460d2555f60d155610c5285611dc1565b5050508015610c9a575f805461ff0019169055604051600181527f7f26b83ff96e1f2b6a682f133852f6798a09c465da95921460cefb38474024989060200160405180910390a15b50505050505050565b5f610cac6110bc565b610cb4611115565b5f610cfa6109cb5f8a8a8080601f0160208091040260200160405190810160405280939291908181526020018383808284375f9201919091525092939250506111e79050565b90505f610d426109cb5f89898080601f0160208091040260200160405190810160405280939291908181526020018383808284375f9201919091525092939250506111e79050565b90505f610d8a6109785f88888080601f0160208091040260200160405190810160405280939291908181526020018383808284375f9201919091525092939250506111e79050565b9050610d97838383611e02565b610da2838383611ed7565b9350505050610db16001606555565b9695505050505050565b60d3546040516370a0823160e01b81523060048201525f916001600160a01b0316906370a0823190602401602060405180830381865afa158015610e01573d5f803e3d5ffd5b505050506040513d601f19601f82011682018060405250810190610e259190613a99565b905090565b610e326112ce565b6108fd81611d22565b610e436112ce565b6108fd81611dc1565b5f610e556110bc565b610cb46112ce565b610e656112ce565b6108ea612182565b610e756112ce565b6108fd81611c73565b5f333b15610ece5760405162461bcd60e51b815260206004820152601e60248201527f426974636f696e52656c61793a206164647220697320636f6e7472616374000060448201526064016106a3565b5f83815260d560205260409020805483908110610eed57610eed613a4b565b905f5260205f2090600502015f0154905092915050565b610f0c6112ce565b6108fd816121bb565b5f82815260d5602052604081208054610f4e919084908110610f3957610f39613a4b565b905f5260205f209060050201600401546121fc565b9392505050565b610f5d6112ce565b6108fd8161224c565b5f82815260d56020526040812080548291610f8b91859081106107db576107db613a4b565b5f85815260d56020526040902080549192507f171c7e89f8a58af73276553913c8f63b7270aacd03134a80a0e1d46a6b783cd39185908110610fcf57610fcf613a4b565b5f918252602091829020600590910201546040805191825291810187905290810183905260600160405180910390a15f84815260d56020526040902080548490811061101d5761101d613a4b565b905f5260205f2090600502015f015491505092915050565b5f61103e6110bc565b6109326112ce565b61104e6112ce565b6001600160a01b0381166110b35760405162461bcd60e51b815260206004820152602660248201527f4f776e61626c653a206e6577206f776e657220697320746865207a65726f206160448201526564647265737360d01b60648201526084016106a3565b6108fd816122b5565b60026065540361110e5760405162461bcd60e51b815260206004820152601f60248201527f5265656e7472616e637947756172643a207265656e7472616e742063616c6c0060448201526064016106a3565b6002606555565b60975460ff16156108ea5760405162461bcd60e51b815260206004820152601060248201526f14185d5cd8589b194e881c185d5cd95960821b60448201526064016106a3565b5f600160d15f82825461116e9190613a38565b9091555061117d9050826121fc565b9050803410156111cf5760405162461bcd60e51b815260206004820152601f60248201527f426974636f696e52656c61793a20666565206973206e6f7420656e6f7567680060448201526064016106a3565b6111e2336111dd8334613a86565b612306565b919050565b81515f90602084016108d164ffffffffff85168284612399565b5f8181611216815b62ffffff198416906123dd565b5061122f6020601886901c6001600160601b0316613ab0565b6001600160601b03161561124a5762ffffff195b9250611267565b61126460145b60d81b6301000000600160d81b0386161790565b92505b5050919050565b5f82601461127b81611209565b508587148015611289575083155b80156112a05750601885901c6001600160601b0316155b156112ae57600192506112bd565b6112ba878688876124b2565b92505b5050949350505050565b6001606555565b6033546001600160a01b031633146108ea5760405162461bcd60e51b815260206004820181905260248201527f4f776e61626c653a2063616c6c6572206973206e6f7420746865206f776e657260448201526064016106a3565b611330611115565b6097805460ff191660011790557f62e78cea01bee320cd4e420270b5ea74000d11b0c9f74754ebdbfc544b05a2586113653390565b6040516001600160a01b03909116815260200160405180910390a1565b60cf5460408051918252602082018390527fd077b1717c042dc03e7eb68030220b62f703db305be2ffb5b9e1d91b639a63f9910160405180910390a15f811161140d5760405162461bcd60e51b815260206004820152601f60248201527f426974636f696e52656c61793a207a65726f2065706f6368206c656e6774680060448201526064016106a3565b60cf55565b5f81815260d76020526040812054810361146e5760405162461bcd60e51b815260206004820152601b60248201527f426974636f696e52656c61793a20756e6b6e6f776e20626c6f636b000000000060448201526064016106a3565b505f90815260d7602052604090205490565b60d05460408051918252602082018390527f74fc63a076510aaad1c9925c1575a3cd23bc28541d09501418a96b0a38335f53910160405180910390a15f811161150b5760405162461bcd60e51b815260206004820152601d60248201527f426974636f696e52656c61793a207a65726f206261736520717565727900000060448201526064016106a3565b60d055565b5f818161151c81611209565b506115356050601886901c6001600160601b0316613ab0565b6001600160601b03161561154d5762ffffff19611243565b6112646011611250565b5f818161156381611209565b506050601885901c6001600160601b0316146115835762ffffff19611243565b6112646010611250565b62ffffff19828116141580156115c157506115b66050601884901c6001600160601b0316613ab0565b6001600160601b0316155b80156115d3575062ffffff1981811614155b80156115ec57506050601882901c6001600160601b0316145b6116325760405162461bcd60e51b81526020600482015260176024820152762134ba31b7b4b72932b630bc9d103bb937b733903632b760491b60448201526064016106a3565b5050565b5f8061164762ffffff198616611bd1565b90505f61165382611412565b90505f61167461166962ffffff198816836125c9565b62ffffff19166125f9565b9050848061168f57508061168d62ffffff1989166125f9565b145b6116f65760405162461bcd60e51b815260206004820152603260248201527f426974636f696e52656c61793a20756e657870656374656420726574617267656044820152711d081bdb88195e1d195c9b985b0818d85b1b60721b60648201526084016106a3565b60ca5460cb54611707846001613a38565b6117119190613a38565b1161176e5760405162461bcd60e51b815260206004820152602760248201527f426974636f696e52656c61793a20626c6f636b206865616465727320617265206044820152661d1bdbc81bdb1960ca1b60648201526084016106a3565b5f805f5b61178a605060188b901c6001600160601b0316613ad5565b6001600160601b0316811015611b37575f6117ab62ffffff198b16836125c9565b90506117b78287613a38565b6117c2906001613a38565b93506117d362ffffff198216611bd1565b5f81815260d660205260409020549093501561184c5760405162461bcd60e51b815260206004820152603260248201527f426974636f696e52656c61793a2074686520626c6f636b2068656164657220656044820152717869737473206f6e207468652072656c617960701b60648201526084016106a3565b8880611862575061185f6107e085613a73565b15155b6118e85760405162461bcd60e51b815260206004820152604b60248201527f426974636f696e52656c61793a20686561646572732073686f756c642062652060448201527f7375626d69747465642062792063616c6c696e6720616464486561646572735760648201526a1a5d1a14995d185c99d95d60aa1b608482015260a4016106a3565b6118f461151842613a38565b61190362ffffff1983166126c2565b63ffffffff16106119625760405162461bcd60e51b8152602060048201526024808201527f426974636f696e52656c61793a20626c6f636b20697320616865616420696e2060448201526374696d6560e01b60648201526084016106a3565b8461197262ffffff1983166125f9565b146119d15760405162461bcd60e51b815260206004820152602960248201527f426974636f696e52656c61793a20746172676574206368616e67656420756e65604482015268787065637465646c7960b81b60648201526084016106a3565b6119e162ffffff198216886126e3565b611a4a5760405162461bcd60e51b815260206004820152603460248201527f426974636f696e52656c61793a206865616465727320646f206e6f7420666f726044820152733690309031b7b739b4b9ba32b73a1031b430b4b760611b60648201526084016106a3565b84611a5484612705565b1115611ab45760405162461bcd60e51b815260206004820152602960248201527f426974636f696e52656c61793a2068656164657220776f726b20697320696e736044820152681d59999a58da595b9d60ba1b60648201526084016106a3565b5f83815260d6602090815260408083208a905560d79091529020849055336001600160a01b031687857ffb8fff3e2daa665d496373ced291b62aba4162f24632a1597e286621016e9a1f86604051611b0e91815260200190565b60405180910390a4611b208185612841565b829650508080611b2f90613afa565b915050611772565b5060019998505050505050505050565b5f54610100900460ff16611b6d5760405162461bcd60e51b81526004016106a390613b12565b6108ea6129bc565b5f54610100900460ff16611b9b5760405162461bcd60e51b81526004016106a390613b12565b6108ea6129eb565b5f54610100900460ff16611bc95760405162461bcd60e51b81526004016106a390613b12565b6108ea612a11565b5f80611be68360781c6001600160601b031690565b6001600160601b031690505f611c058460181c6001600160601b031690565b6001600160601b03169050604051602081838560025afa5060208160208360025afa5051949350505050565b5f816010611c3e81611209565b5061126462ffffff19851660046020612a43565b5f816010611c5f81611209565b5061126462ffffff19851660246020612a43565b60cb5460408051918252602082018390527fe7ff4c9746f87ab86154b3cb3bb52e1647f016783ae4e195496258eaa884c296910160405180910390a15f81118015611cc057506101b08111155b611d1d5760405162461bcd60e51b815260206004820152602860248201527f426974636f696e52656c61793a20696e76616c69642066696e616c697a6174696044820152676f6e20706172616d60c01b60648201526084016106a3565b60cb55565b60cd5460408051918252602082018390527f1957bdf4f6fe279cd1cb63c41461020488cecbdf8721d1a1c960bc57c7cddce8910160405180910390a1612710811115611dbc5760405162461bcd60e51b8152602060048201526024808201527f426974636f696e52656c61793a2072656c6179206665652069732061626f7665604482015263040dac2f60e31b60648201526084016106a3565b60cd55565b60ce5460408051918252602082018390527f7a20e935d503f4d2565dbc88569bbe136c1e2a59da068a1d1286f04512ecfff3910160405180910390a160ce55565b62ffffff1983811614158015611e2557506050601884901c6001600160601b0316145b8015611e37575062ffffff1982811614155b8015611e5057506050601883901c6001600160601b0316145b8015611e62575062ffffff1981811614155b8015611e8c5750611e816050601883901c6001600160601b0316613ab0565b6001600160601b0316155b611ed25760405162461bcd60e51b81526020600482015260176024820152762134ba31b7b4b72932b630bc9d103bb937b733903632b760491b60448201526064016106a3565b505050565b5f80611ef0611eeb62ffffff198716611bd1565b611412565b90505f611f05611eeb62ffffff198716611bd1565b9050611f136107e082613a73565b6107df14611f9d5760405162461bcd60e51b815260206004820152604b60248201527f426974636f696e52656c61793a206d7573742070726f7669646520746865206c60448201527f61737420686561646572206f662074686520636c6f73696e672064696666696360648201526a1d5b1d1e481c195c9a5bd960aa1b608482015260a4016106a3565b611fa9826107df613a38565b81146120165760405162461bcd60e51b815260206004820152603660248201527f426974636f696e52656c61793a206d7573742070726f766964652065786163746044820152751b1e480c48191a59999a58dd5b1d1e481c195c9a5bd960521b60648201526084016106a3565b61202562ffffff198616612b99565b61203462ffffff198816612b99565b1461209f5760405162461bcd60e51b815260206004820152603560248201527f426974636f696e52656c61793a20706572696f642068656164657220646966666044820152740d2c6ead8e8d2cae640c8de40dcdee840dac2e8c6d605b1b60648201526084016106a3565b5f6120b062ffffff198616826125c9565b90505f6120c262ffffff1983166125f9565b90505f6121066120d762ffffff198b166125f9565b6120e662ffffff198c166126c2565b63ffffffff166120fb62ffffff198c166126c2565b63ffffffff16612bb8565b905081818316146121695760405162461bcd60e51b815260206004820152602760248201527f426974636f696e52656c61793a20696e76616c696420726574617267657420706044820152661c9bdd9a59195960ca1b60648201526084016106a3565b61217588886001611636565b9998505050505050505050565b61218a612c47565b6097805460ff191690557f5db9ee0a495bf2e6ff9c91a7834c1ba4fdd244a5e8aa4e537bd38aeae4b073aa33611365565b60cc5460408051918252602082018390527fe43de8c98a3401a046e4ea741059d335faa482e1262eb6a888a2ca2a1da3d474910160405180910390a160cc55565b5f61271060d25460cf5460cd546127106122169190613a38565b8560ce546122249190613b5d565b61222e9190613b5d565b6122389190613b5d565b6122429190613b74565b61090a9190613b74565b60d354604080516001600160a01b03928316815291831660208301527ffd88adf2dc0ac6ee5960f2f4273f25017bab8b5efa8889b3cf085ce645c293b2910160405180910390a160d380546001600160a01b0319166001600160a01b0392909216919091179055565b603380546001600160a01b038381166001600160a01b0319831681179093556040519116919082907f8be0079c531659141344cd1fd0a4f28419497f9722a3daafe3b4186f6b6457e0905f90a35050565b804710156123295760405163cd78605960e01b81523060048201526024016106a3565b5f826001600160a01b0316826040515f6040518083038185875af1925050503d805f8114612372576040519150601f19603f3d011682016040523d82523d5f602084013e612377565b606091505b5050905080611ed257604051630a12f52160e11b815260040160405180910390fd5b5f806123a58385613a38565b90506040518111156123b457505f5b805f036123c85762ffffff19915050610f4e565b5050606092831b9190911790911b1760181b90565b5f6123e88383612c90565b6124ab575f6124066123fa8560d81c90565b64ffffffffff16612cb2565b9150505f61241a8464ffffffffff16612cb2565b6040517f5479706520617373657274696f6e206661696c65642e20476f7420307800000060208201526001600160b01b031960b086811b8216603d8401526c05c408af0e0cac6e8cac84060f609b1b604784015283901b1660548201529092505f9150605e0160405160208183030381529060405290508060405162461bcd60e51b81526004016106a39190613ba9565b5090919050565b5f8360146124bf81611209565b508461250d5760405162461bcd60e51b815260206004820152601860248201527f426974636f696e48656c7065723a207a65726f20726f6f74000000000000000060448201526064016106a3565b5f6125266020601889901c6001600160601b0316613ad5565b6001600160601b03169050805f03612543578588149350506112bd565b84885f5b838110156125b9575f61256d61255e836020613b5d565b62ffffff198d16906020612a43565b905061257a600285613a73565b6001036125925761258b8184612d5a565b925061259f565b61259c8382612d5a565b92505b5060019290921c91806125b181613afa565b915050612547565b5090961498975050505050505050565b5f8260116125d681611209565b505f6125e3856050613b5d565b9050610db162ffffff1987168260506010612d85565b5f81601061260681611209565b505f61261b62ffffff19861660486003612df4565b9050600261263262ffffff198716604b6001612e08565b1161268a5760405162461bcd60e51b815260206004820152602260248201527f566965774254433a20696e76616c69642074617267657420646966666963756c604482015261747960f01b60648201526084016106a3565b5f60036126a062ffffff198816604b6001612e08565b6126aa9190613a86565b90506126b881610100613cbb565b610db19083613b5d565b5f8160106126cf81611209565b5061126462ffffff19851660446004612df4565b5f8260106126f081611209565b50836126fb86611c31565b1495945050505050565b5f8190506008817eff00ff00ff00ff00ff00ff00ff00ff00ff00ff00ff00ff00ff00ff00ff00ff16901b600882901c7eff00ff00ff00ff00ff00ff00ff00ff00ff00ff00ff00ff00ff00ff00ff00ff161790506010817dffff0000ffff0000ffff0000ffff0000ffff0000ffff0000ffff0000ffff16901b601082901c7dffff0000ffff0000ffff0000ffff0000ffff0000ffff0000ffff0000ffff161790506020817bffffffff00000000ffffffff00000000ffffffff00000000ffffffff16901b602082901c7bffffffff00000000ffffffff00000000ffffffff00000000ffffffff1617905060408177ffffffffffffffff0000000000000000ffffffffffffffff16901b604082901c77ffffffffffffffff0000000000000000ffffffffffffffff16179050608081901b608082901c179050919050565b60ca5460cb546128519083613a38565b116128ac5760405162461bcd60e51b815260206004820152602560248201527f426974636f696e52656c61793a20626c6f636b2068656164657220697320746f6044820152641bc81bdb1960da1b60648201526084016106a3565b6040805160a0810182525f808252602082018190529181018290526060810182905260808101919091526128e562ffffff198416611bd1565b81526128f662ffffff198416611c31565b602082015261290a62ffffff198416611c52565b6040820152336001600160a01b03908116606083019081523a608084019081525f85815260d5602090815260408083208054600180820183559185529383902088516005909502019384559187015191830191909155850151600282015591516003830180546001600160a01b0319169190941617909255905160049091015560ca54821115611ed257600160ca5f8282546129a69190613a38565b909155506129b49050612e37565b611ed2612e6d565b5f54610100900460ff166129e25760405162461bcd60e51b81526004016106a390613b12565b6108ea336122b5565b5f54610100900460ff166112c75760405162461bcd60e51b81526004016106a390613b12565b5f54610100900460ff16612a375760405162461bcd60e51b81526004016106a390613b12565b6097805460ff19169055565b5f8160ff165f03612a5557505f610f4e565b612a688460181c6001600160601b031690565b6001600160601b0316612a7e60ff841685613a38565b1115612ae257612ac9612a9a8560781c6001600160601b031690565b6001600160601b0316612ab68660181c6001600160601b031690565b6001600160601b0316858560ff166130fa565b60405162461bcd60e51b81526004016106a39190613ba9565b60208260ff161115612b5c5760405162461bcd60e51b815260206004820152603a60248201527f54797065644d656d566965772f696e646578202d20417474656d70746564207460448201527f6f20696e646578206d6f7265207468616e20333220627974657300000000000060648201526084016106a3565b600882025f612b748660781c6001600160601b031690565b6001600160601b031690505f600160ff1b5f1984011d91909501511695945050505050565b5f816010612ba681611209565b50611264612bb3856125f9565b613164565b5f80612bc48484613a86565b9050612bd4600462127500613b74565b811015612bec57612be9600462127500613b74565b90505b612bfa621275006004613b5d565b811115612c1257612c0f621275006004613b5d565b90505b5f81612c216201000088613b74565b612c2b9190613b5d565b9050612c3a6212750082613b74565b610db19062010000613b5d565b60975460ff166108ea5760405162461bcd60e51b815260206004820152601460248201527314185d5cd8589b194e881b9bdd081c185d5cd95960621b60448201526064016106a3565b5f8164ffffffffff16612ca38460d81c90565b64ffffffffff16149392505050565b5f80601f5b600f8160ff161115612d0e575f612ccf826008613cc6565b60ff1685901c9050612ce081613174565b61ffff16841793508160ff16601014612cfb57601084901b93505b50612d07600182613ce2565b9050612cb7565b50600f5b60ff8160ff161015612d545760ff600882021684901c612d3181613174565b61ffff16831792508160ff165f14612d4b57601083901b92505b505f1901612d12565b50915091565b5f60405183815282602082015260208160408360025afa5060208160208360025afa50519392505050565b5f80612d9a8660781c6001600160601b031690565b6001600160601b03169050612dae866131a5565b84612db98784613a38565b612dc39190613a38565b1115612dd65762ffffff199150506109fb565b612de08582613a38565b9050610db18364ffffffffff168286612399565b5f6109fb612e03858585612a43565b612705565b5f612e14826020613ce2565b612e1f906008613cc6565b60ff16612e2d858585612a43565b901c949350505050565b60cf5460ca54612e479190613a73565b5f036108ea5760d05460d15410612e605760d154612e64565b60d0545b60d2555f60d155565b60cb5460c95460ca54612e809190613a86565b106108ea5760cb5460ca545f5b8215612efd575f82815260d560205260408120805483908110612eb257612eb2613a4b565b905f5260205f209060050201600101549050612eda81600185612ed59190613a86565b6131e5565b915083612ee681613cfb565b9450508280612ef490613cfb565b93505050612e8d565b5f82815260d560205260409020805482908110612f1c57612f1c613a4b565b905f5260205f20906005020160d55f8481526020019081526020015f205f81548110612f4a57612f4a613a4b565b5f91825260208083208454600590930201918255600180850154818401556002808601549084015560038086015490840180546001600160a01b0319166001600160a01b03909216919091179055600494850154949092019390935584825260d590925260409020541115612fc257612fc28261324e565b5f82815260d56020526040812080548291613007918390612fe557612fe5613a4b565b5f9182526020909120600360059092020101546001600160a01b0316856132e0565b5f86815260d5602052604081208054939550919350909161302a5761302a613a4b565b5f91825260208083206003600590930201919091015486835260d59091526040822080546001600160a01b039092169287927f4fec6ffa2052e80db9daadc2384a8f634057472e28ea7f1bd3eebfc92b5b0f8e92919061308c5761308c613a4b565b905f5260205f2090600502015f015460d55f8981526020019081526020015f205f815481106130bd576130bd613a4b565b5f91825260209182902060016005909202010154604080519384529183015281018690526060810185905260800160405180910390a35050505050565b60605f61310686612cb2565b9150505f61311386612cb2565b9150505f61312086612cb2565b9150505f61312d86612cb2565b915050838383836040516020016131479493929190613d10565b604051602081830303815290604052945050505050949350505050565b5f61090a8261ffff60d01b613b74565b5f61318560048360ff16901c61346e565b60ff1661ffff919091161760081b61319c8261346e565b60ff1617919050565b5f6131b98260181c6001600160601b031690565b6131cc8360781c6001600160601b031690565b6131d69190613de6565b6001600160601b031692915050565b5f805b5f83815260d56020526040902054811015613247575f83815260d56020526040902080548290811061321c5761321c613a4b565b905f5260205f2090600502015f01548403613235578091505b8061323f81613afa565b9150506131e8565b5092915050565b5f81815260d5602052604081205461326890600190613a86565b90505b8015611632575f82815260d56020526040902080548061328d5761328d613e06565b5f8281526020812060055f19909301928302018181556001818101839055600282018390556003820180546001600160a01b031916905560049091019190915591556132d99082613a86565b905061326b565b5f805f61271060cd546127106132f69190613a38565b5f86815260d560205260408120805490919061331457613314613a4b565b905f5260205f2090600502016004015460ce546133319190613b5d565b61333b9190613b5d565b6133459190613b74565b60d3549091505f906001600160a01b0316156133c85760d3546040516370a0823160e01b81523060048201526001600160a01b03909116906370a0823190602401602060405180830381865afa1580156133a1573d5f803e3d5ffd5b505050506040513d601f19601f820116820180604052508101906133c59190613a99565b90505b5f8160cc54111580156133dc57505f60cc54115b156134025760cc5460d3546133fe916001600160a01b039091169089906135ba565b5060015b5f834711801561341157505f84115b15613424576134208885612306565b5060015b8015613448578161343657835f61343b565b8360cc545b9550955050505050613467565b81613454575f80613459565b5f60cc545b60ff90911696509450505050505b9250929050565b5f60f08083179060ff821690036134885750603092915050565b8060ff1660f10361349c5750603192915050565b8060ff1660f2036134b05750603292915050565b8060ff1660f3036134c45750603392915050565b8060ff1660f4036134d85750603492915050565b8060ff1660f5036134ec5750603592915050565b8060ff1660f6036135005750603692915050565b8060ff1660f7036135145750603792915050565b8060ff1660f8036135285750603892915050565b8060ff1660f90361353c5750603992915050565b8060ff1660fa036135505750606192915050565b8060ff1660fb036135645750606292915050565b8060ff1660fc036135785750606392915050565b8060ff1660fd0361358c5750606492915050565b8060ff1660fe036135a05750606592915050565b8060ff1660ff036135b45750606692915050565b50919050565b604080516001600160a01b03848116602483015260448083018590528351808403909101815260649092019092526020810180516001600160e01b031663a9059cbb60e01b179052611ed2918591905f9061361790841683613664565b905080515f1415801561363b5750808060200190518101906136399190613e1a565b155b15611ed257604051635274afe760e01b81526001600160a01b03841660048201526024016106a3565b6060610f4e83835f845f80856001600160a01b031684866040516136889190613e39565b5f6040518083038185875af1925050503d805f81146136c2576040519150601f19603f3d011682016040523d82523d5f602084013e6136c7565b606091505b5091509150610db18683836060826136e7576136e28261372e565b610f4e565b81511580156136fe57506001600160a01b0384163b155b1561372757604051639996b31560e01b81526001600160a01b03851660048201526024016106a3565b5080610f4e565b80511561373e5780518082602001fd5b604051630a12f52160e11b815260040160405180910390fd5b5f8083601f840112613767575f80fd5b50813567ffffffffffffffff81111561377e575f80fd5b602083019150836020828501011115613467575f80fd5b5f805f805f608086880312156137a9575f80fd5b8535945060208601359350604086013567ffffffffffffffff8111156137cd575f80fd5b6137d988828901613757565b96999598509660600135949350505050565b5f602082840312156137fb575f80fd5b5035919050565b5f805f8060408587031215613815575f80fd5b843567ffffffffffffffff8082111561382c575f80fd5b61383888838901613757565b90965094506020870135915080821115613850575f80fd5b5061385d87828801613757565b95989497509550505050565b634e487b7160e01b5f52604160045260245ffd5b5f805f805f8060c08789031215613892575f80fd5b863567ffffffffffffffff808211156138a9575f80fd5b818901915089601f8301126138bc575f80fd5b8135818111156138ce576138ce613869565b604051601f8201601f19908116603f011681019083821181831017156138f6576138f6613869565b816040528281528c602084870101111561390e575f80fd5b826020860160208301375f60209382018401529c918b01359b505060408a013599606081013599506080810135985060a001359650945050505050565b5f805f805f8060608789031215613960575f80fd5b863567ffffffffffffffff80821115613977575f80fd5b6139838a838b01613757565b9098509650602089013591508082111561399b575f80fd5b6139a78a838b01613757565b909650945060408901359150808211156139bf575f80fd5b506139cc89828a01613757565b979a9699509497509295939492505050565b5f80604083850312156139ef575f80fd5b50508035926020909101359150565b5f60208284031215613a0e575f80fd5b81356001600160a01b0381168114610f4e575f80fd5b634e487b7160e01b5f52601160045260245ffd5b8082018082111561090a5761090a613a24565b634e487b7160e01b5f52603260045260245ffd5b634e487b7160e01b5f52601260045260245ffd5b5f82613a8157613a81613a5f565b500690565b8181038181111561090a5761090a613a24565b5f60208284031215613aa9575f80fd5b5051919050565b5f6001600160601b0380841680613ac957613ac9613a5f565b92169190910692915050565b5f6001600160601b0380841680613aee57613aee613a5f565b92169190910492915050565b5f60018201613b0b57613b0b613a24565b5060010190565b6020808252602b908201527f496e697469616c697a61626c653a20636f6e7472616374206973206e6f74206960408201526a6e697469616c697a696e6760a81b606082015260800190565b808202811582820484141761090a5761090a613a24565b5f82613b8257613b82613a5f565b500490565b5f5b83811015613ba1578181015183820152602001613b89565b50505f910152565b602081525f8251806020840152613bc7816040850160208701613b87565b601f01601f19169190910160400192915050565b600181815b80851115613c1557815f1904821115613bfb57613bfb613a24565b80851615613c0857918102915b93841c9390800290613be0565b509250929050565b5f82613c2b5750600161090a565b81613c3757505f61090a565b8160018114613c4d5760028114613c5757613c73565b600191505061090a565b60ff841115613c6857613c68613a24565b50506001821b61090a565b5060208310610133831016604e8410600b8410161715613c96575081810a61090a565b613ca08383613bdb565b805f1904821115613cb357613cb3613a24565b029392505050565b5f610f4e8383613c1d565b60ff818116838216029081169081811461324757613247613a24565b60ff828116828216039081111561090a5761090a613a24565b5f81613d0957613d09613a24565b505f190190565b7f54797065644d656d566965772f696e646578202d204f76657272616e20746865815274040ecd2caee5c40a6d8d2c6ca40d2e640c2e84060f605b1b60208201526001600160d01b031960d086811b821660358401526e040eed2e8d040d8cadccee8d04060f608b1b603b840181905286821b8316604a8501527f2e20417474656d7074656420746f20696e646578206174206f666673657420306050850152600f60fb1b607085015285821b83166071850152607784015283901b166086820152601760f91b608c8201525f608d8201610db1565b6001600160601b0381811683821601908082111561324757613247613a24565b634e487b7160e01b5f52603160045260245ffd5b5f60208284031215613e2a575f80fd5b81518015158114610f4e575f80fd5b5f8251613e4a818460208701613b87565b919091019291505056fea2646970667358221220ef5362958b3f9893ac854e00a9b90500464a1a9d11c88f1fc33cf7b36f7862db64736f6c63430008140033",
  "devdoc": {
    "errors": {
      "AddressEmptyCode(address)": [
        {
          "details": "There's no code at `target` (it is not a contract)."
        }
      ],
      "AddressInsufficientBalance(address)": [
        {
          "details": "The ETH balance of the account is not enough to perform the operation."
        }
      ],
      "FailedInnerCall()": [
        {
          "details": "A call to an address target failed. The target may have reverted."
        }
      ],
      "SafeERC20FailedOperation(address)": [
        {
          "details": "An operation with an ERC20 token failed."
        }
      ]
    },
    "events": {
      "BlockAdded(uint256,bytes32,bytes32,address)": {
        "params": {
          "height": "of submitted header",
          "parentHash": "of submitted header",
          "relayer": "Address of Relayer who submitted the block header",
          "selfHash": "Hash of submitted header"
        }
      },
      "BlockFinalized(uint256,bytes32,bytes32,address,uint256,uint256)": {
        "params": {
          "height": "of the header",
          "parentHash": "of the header",
          "relayer": "Address of Relayer who submitted the block header",
          "rewardAmountTDT": "Amount of reward that the Relayer receives in TeleportDAO token",
          "rewardAmountTNT": "Amount of reward that the Relayer receives in target blockchain native token",
          "selfHash": "Hash of the header"
        }
      },
      "Initialized(uint8)": {
        "details": "Triggered when the contract has been initialized or reinitialized."
      },
      "NewQuery(bytes32,uint256,uint256)": {
        "params": {
          "blockHeight": "of the block that includes the tx",
          "paidFee": "Amount of fee that user paid to Relay",
          "txId": "of queried transaction"
        }
      },
      "Paused(address)": {
        "details": "Emitted when the pause is triggered by `account`."
      },
      "Unpaused(address)": {
        "details": "Emitted when the pause is lifted by `account`."
      }
    },
    "kind": "dev",
    "methods": {
      "addHeaders(bytes,bytes)": {
        "details": "Checks integrity and consistency of the header chain",
        "params": {
          "_anchor": "The header immediately preceeding the new chain",
          "_headers": "A tightly-packed list of 80-byte Bitcoin headers"
        },
        "returns": {
          "_0": "True if successfully written, error otherwise"
        }
      },
      "addHeadersWithRetarget(bytes,bytes,bytes)": {
        "details": "Checks the retarget, the heights, and the linkage",
        "params": {
          "_headers": "A tightly-packed list of 80-byte Bitcoin headers",
          "_oldPeriodEndHeader": "The last header in the difficulty period being closed (anchor of new headers)",
          "_oldPeriodStartHeader": "The first header in the difficulty period being closed"
        },
        "returns": {
          "_0": "True if successfully written, error otherwise"
        }
      },
      "checkTxProof(bytes32,uint256,bytes,uint256)": {
        "details": "Checks if the block is finalized, and Merkle proof is valid",
        "params": {
          "_blockHeight": "of the desired tx",
          "_index": "of the tx in Merkle tree",
          "_intermediateNodes": "Part of the Merkle tree from the tx to the root in LE form (called Merkle proof)",
          "_txid": "Desired tx Id in LE form"
        },
        "returns": {
          "_0": "True if the provided tx is confirmed on Bitcoin"
        }
      },
      "findHeight(bytes32)": {
        "details": "Fails if the header is unknown",
        "params": {
          "_hash": "The header hash to search for"
        },
        "returns": {
          "_0": "The height of the header"
        }
      },
      "getBlockHeaderFee(uint256,uint256)": {
        "params": {
          "_height": "of the desired block header",
          "_index": "of the desired block header in that height"
        },
        "returns": {
          "_0": "Block header submission gas price"
        }
      },
      "getBlockHeaderHash(uint256,uint256)": {
        "details": "It cannot be called by other contracts",
        "params": {
          "_height": "of the desired block header",
          "_index": "of the desired block header in that height"
        },
        "returns": {
          "_0": "Block header's hash"
        }
      },
      "getBlockHeaderHashContract(uint256,uint256)": {
        "details": "Caller should pay the query fee"
      },
      "getNumberOfSubmittedHeaders(uint256)": {
        "details": "This shows the number of temporary forks in that specific height",
        "params": {
          "_height": "The desired height of the blockchain"
        },
        "returns": {
          "_0": "Number of block headers stored in a height"
        }
      },
      "initialize(bytes,uint256,bytes32,uint256,uint256,uint256)": {
        "params": {
          "_finalizationParameter": "The number of blocks that must be submitted before a block is considered finalized",
          "_genesisHeader": "The starting header",
          "_height": "The starting height",
          "_periodStart": "The hash of the first header in the genesis epoch",
          "_relayerPercentageFee": "The percentage of the submission gas fee that goes to Relayers",
          "_submissionGasUsed": "The gas used by Relayers for submitting a block header"
        }
      },
      "owner()": {
        "details": "Returns the address of the current owner."
      },
      "pauseRelay()": {
        "details": "Only functions with whenPaused modifier can be called"
      },
      "paused()": {
        "details": "Returns true if the contract is paused, and false otherwise."
      },
      "renounceOwnership()": {
        "details": "Leaves the contract without owner. It will not be possible to call `onlyOwner` functions. Can only be called by the current owner. NOTE: Renouncing ownership will leave the contract without an owner, thereby disabling any functionality that is only available to the owner."
      },
      "setBaseQueries(uint256)": {
        "params": {
          "_baseQueries": "The base number of queries we assume in each epoch                     This prevents query fee to grow significantly"
        }
      },
      "setEpochLength(uint256)": {
        "params": {
          "_epochLength": "The length of epochs used for estimating the query fee"
        }
      },
      "setFinalizationParameter(uint256)": {
        "details": "Bigger finalization parameter increases security but also increases the delay",
        "params": {
          "_finalizationParameter": "The finalization parameter of Bitcoin"
        }
      },
      "setRelayerPercentageFee(uint256)": {
        "details": "A percentage of the submission gas used goes to Relayers as reward",
        "params": {
          "_relayerPercentageFee": "New percentage fee"
        }
      },
      "setRewardAmountInTDT(uint256)": {
        "details": "This award is for the Relayer who submitted a finalized block header",
        "params": {
          "_rewardAmountInTDT": "The amount of reward in TDT"
        }
      },
      "setSubmissionGasUsed(uint256)": {
        "params": {
          "_submissionGasUsed": "The gas used by Relayers for submitting a block header"
        }
      },
      "setTeleportDAOToken(address)": {
        "params": {
          "_TeleportDAOToken": "The TeleportDAO token (TDT) address"
        }
      },
      "transferOwnership(address)": {
        "details": "Transfers ownership of the contract to a new account (`newOwner`). Can only be called by the current owner."
      },
      "unpauseRelay()": {
        "details": "Only functions with whenNotPaused modifier can be called"
      }
    },
    "version": 1
  },
  "userdoc": {
    "events": {
      "BlockAdded(uint256,bytes32,bytes32,address)": {
        "notice": "Emits when a block header is added"
      },
      "BlockFinalized(uint256,bytes32,bytes32,address,uint256,uint256)": {
        "notice": "Emits when a block header gets finalized"
      },
      "NewQuery(bytes32,uint256,uint256)": {
        "notice": "Emits when inclusion of a tx is queried"
      }
    },
    "kind": "user",
    "methods": {
      "addHeaders(bytes,bytes)": {
        "notice": "Adds headers to storage after validating"
      },
      "addHeadersWithRetarget(bytes,bytes,bytes)": {
        "notice": "Adds headers to storage, performs additional validation of retarget"
      },
      "availableTDT()": {
        "notice": "Getter for available TDT in Relay treasury"
      },
      "availableTNT()": {
        "notice": "Getter for available target native token (TNT) in Relay treasury"
      },
      "checkTxProof(bytes32,uint256,bytes,uint256)": {
        "notice": "Checks if a tx is included and finalized on Bitcoin"
      },
      "findHeight(bytes32)": {
        "notice": "Finds the height of a header by its hash"
      },
      "getBlockHeaderFee(uint256,uint256)": {
        "notice": "Getter for a specific block header submission gas price"
      },
      "getBlockHeaderHash(uint256,uint256)": {
        "notice": "Getter for a specific block header's hash in the stored chain"
      },
      "getBlockHeaderHashContract(uint256,uint256)": {
        "notice": "Same as getBlockHeaderHash, but can be called by other contracts"
      },
      "getNumberOfSubmittedHeaders(uint256)": {
        "notice": "Getter for the number of submitted block headers in a height"
      },
      "initialize(bytes,uint256,bytes32,uint256,uint256,uint256)": {
        "notice": "Give a starting point for the relay"
      },
      "ownerAddHeaders(bytes,bytes)": {
        "notice": "Same as addHeaders, but can only be called by owner even if contract is paused         It will be used if a fork happend"
      },
      "ownerAddHeadersWithRetarget(bytes,bytes,bytes)": {
        "notice": "Same as addHeadersWithRetarget, but can only be called by owner even if contract is paused         It will be used if a fork happend"
      },
      "pauseRelay()": {
        "notice": "Pauses the Relay"
      },
      "setBaseQueries(uint256)": {
        "notice": "External setter for baseQueries"
      },
      "setEpochLength(uint256)": {
        "notice": "External setter for epochLength"
      },
      "setFinalizationParameter(uint256)": {
        "notice": "External setter for finalizationParameter"
      },
      "setRelayerPercentageFee(uint256)": {
        "notice": "External setter for relayerPercentageFee"
      },
      "setRewardAmountInTDT(uint256)": {
        "notice": "External setter for rewardAmountInTDT"
      },
      "setSubmissionGasUsed(uint256)": {
        "notice": "External setter for submissionGasUsed"
      },
      "setTeleportDAOToken(address)": {
        "notice": "External setter for TeleportDAO token"
      },
      "unpauseRelay()": {
        "notice": "Unpauses the relay"
      }
    },
    "version": 1
  },
  "storageLayout": {
    "storage": [
      {
        "astId": 139,
        "contract": "contracts/relay/BitcoinRelayLogic.sol:BitcoinRelayLogic",
        "label": "_initialized",
        "offset": 0,
        "slot": "0",
        "type": "t_uint8"
      },
      {
        "astId": 142,
        "contract": "contracts/relay/BitcoinRelayLogic.sol:BitcoinRelayLogic",
        "label": "_initializing",
        "offset": 1,
        "slot": "0",
        "type": "t_bool"
      },
      {
        "astId": 894,
        "contract": "contracts/relay/BitcoinRelayLogic.sol:BitcoinRelayLogic",
        "label": "__gap",
        "offset": 0,
        "slot": "1",
        "type": "t_array(t_uint256)50_storage"
      },
      {
        "astId": 11,
        "contract": "contracts/relay/BitcoinRelayLogic.sol:BitcoinRelayLogic",
        "label": "_owner",
        "offset": 0,
        "slot": "51",
        "type": "t_address"
      },
      {
        "astId": 131,
        "contract": "contracts/relay/BitcoinRelayLogic.sol:BitcoinRelayLogic",
        "label": "__gap",
        "offset": 0,
        "slot": "52",
        "type": "t_array(t_uint256)49_storage"
      },
      {
        "astId": 444,
        "contract": "contracts/relay/BitcoinRelayLogic.sol:BitcoinRelayLogic",
        "label": "_status",
        "offset": 0,
        "slot": "101",
        "type": "t_uint256"
      },
      {
        "astId": 513,
        "contract": "contracts/relay/BitcoinRelayLogic.sol:BitcoinRelayLogic",
        "label": "__gap",
        "offset": 0,
        "slot": "102",
        "type": "t_array(t_uint256)49_storage"
      },
      {
        "astId": 323,
        "contract": "contracts/relay/BitcoinRelayLogic.sol:BitcoinRelayLogic",
        "label": "_paused",
        "offset": 0,
        "slot": "151",
        "type": "t_bool"
      },
      {
        "astId": 428,
        "contract": "contracts/relay/BitcoinRelayLogic.sol:BitcoinRelayLogic",
        "label": "__gap",
        "offset": 0,
        "slot": "152",
        "type": "t_array(t_uint256)49_storage"
      },
      {
        "astId": 9497,
        "contract": "contracts/relay/BitcoinRelayLogic.sol:BitcoinRelayLogic",
        "label": "initialHeight",
        "offset": 0,
        "slot": "201",
        "type": "t_uint256"
      },
      {
        "astId": 9500,
        "contract": "contracts/relay/BitcoinRelayLogic.sol:BitcoinRelayLogic",
        "label": "lastSubmittedHeight",
        "offset": 0,
        "slot": "202",
        "type": "t_uint256"
      },
      {
        "astId": 9503,
        "contract": "contracts/relay/BitcoinRelayLogic.sol:BitcoinRelayLogic",
        "label": "finalizationParameter",
        "offset": 0,
        "slot": "203",
        "type": "t_uint256"
      },
      {
        "astId": 9506,
        "contract": "contracts/relay/BitcoinRelayLogic.sol:BitcoinRelayLogic",
        "label": "rewardAmountInTDT",
        "offset": 0,
        "slot": "204",
        "type": "t_uint256"
      },
      {
        "astId": 9509,
        "contract": "contracts/relay/BitcoinRelayLogic.sol:BitcoinRelayLogic",
        "label": "relayerPercentageFee",
        "offset": 0,
        "slot": "205",
        "type": "t_uint256"
      },
      {
        "astId": 9512,
        "contract": "contracts/relay/BitcoinRelayLogic.sol:BitcoinRelayLogic",
        "label": "submissionGasUsed",
        "offset": 0,
        "slot": "206",
        "type": "t_uint256"
      },
      {
        "astId": 9515,
        "contract": "contracts/relay/BitcoinRelayLogic.sol:BitcoinRelayLogic",
        "label": "epochLength",
        "offset": 0,
        "slot": "207",
        "type": "t_uint256"
      },
      {
        "astId": 9518,
        "contract": "contracts/relay/BitcoinRelayLogic.sol:BitcoinRelayLogic",
        "label": "baseQueries",
        "offset": 0,
        "slot": "208",
        "type": "t_uint256"
      },
      {
        "astId": 9521,
        "contract": "contracts/relay/BitcoinRelayLogic.sol:BitcoinRelayLogic",
        "label": "currentEpochQueries",
        "offset": 0,
        "slot": "209",
        "type": "t_uint256"
      },
      {
        "astId": 9524,
        "contract": "contracts/relay/BitcoinRelayLogic.sol:BitcoinRelayLogic",
        "label": "lastEpochQueries",
        "offset": 0,
        "slot": "210",
        "type": "t_uint256"
      },
      {
        "astId": 9527,
        "contract": "contracts/relay/BitcoinRelayLogic.sol:BitcoinRelayLogic",
        "label": "TeleportDAOToken",
        "offset": 0,
        "slot": "211",
        "type": "t_address"
      },
      {
        "astId": 9530,
        "contract": "contracts/relay/BitcoinRelayLogic.sol:BitcoinRelayLogic",
        "label": "relayGenesisHash",
        "offset": 0,
        "slot": "212",
        "type": "t_bytes32"
      },
      {
        "astId": 9536,
        "contract": "contracts/relay/BitcoinRelayLogic.sol:BitcoinRelayLogic",
        "label": "chain",
        "offset": 0,
        "slot": "213",
        "type": "t_mapping(t_uint256,t_array(t_struct(blockHeader)9559_storage)dyn_storage)"
      },
      {
        "astId": 9540,
        "contract": "contracts/relay/BitcoinRelayLogic.sol:BitcoinRelayLogic",
        "label": "previousBlock",
        "offset": 0,
        "slot": "214",
        "type": "t_mapping(t_bytes32,t_bytes32)"
      },
      {
        "astId": 9544,
        "contract": "contracts/relay/BitcoinRelayLogic.sol:BitcoinRelayLogic",
        "label": "blockHeight",
        "offset": 0,
        "slot": "215",
        "type": "t_mapping(t_bytes32,t_uint256)"
      }
    ],
    "types": {
      "t_address": {
        "encoding": "inplace",
        "label": "address",
        "numberOfBytes": "20"
      },
      "t_array(t_struct(blockHeader)9559_storage)dyn_storage": {
        "base": "t_struct(blockHeader)9559_storage",
        "encoding": "dynamic_array",
        "label": "struct IBitcoinRelay.blockHeader[]",
        "numberOfBytes": "32"
      },
      "t_array(t_uint256)49_storage": {
        "base": "t_uint256",
        "encoding": "inplace",
        "label": "uint256[49]",
        "numberOfBytes": "1568"
      },
      "t_array(t_uint256)50_storage": {
        "base": "t_uint256",
        "encoding": "inplace",
        "label": "uint256[50]",
        "numberOfBytes": "1600"
      },
      "t_bool": {
        "encoding": "inplace",
        "label": "bool",
        "numberOfBytes": "1"
      },
      "t_bytes32": {
        "encoding": "inplace",
        "label": "bytes32",
        "numberOfBytes": "32"
      },
      "t_mapping(t_bytes32,t_bytes32)": {
        "encoding": "mapping",
        "key": "t_bytes32",
        "label": "mapping(bytes32 => bytes32)",
        "numberOfBytes": "32",
        "value": "t_bytes32"
      },
      "t_mapping(t_bytes32,t_uint256)": {
        "encoding": "mapping",
        "key": "t_bytes32",
        "label": "mapping(bytes32 => uint256)",
        "numberOfBytes": "32",
        "value": "t_uint256"
      },
      "t_mapping(t_uint256,t_array(t_struct(blockHeader)9559_storage)dyn_storage)": {
        "encoding": "mapping",
        "key": "t_uint256",
        "label": "mapping(uint256 => struct IBitcoinRelay.blockHeader[])",
        "numberOfBytes": "32",
        "value": "t_array(t_struct(blockHeader)9559_storage)dyn_storage"
      },
      "t_struct(blockHeader)9559_storage": {
        "encoding": "inplace",
        "label": "struct IBitcoinRelay.blockHeader",
        "members": [
          {
            "astId": 9550,
            "contract": "contracts/relay/BitcoinRelayLogic.sol:BitcoinRelayLogic",
            "label": "selfHash",
            "offset": 0,
            "slot": "0",
            "type": "t_bytes32"
          },
          {
            "astId": 9552,
            "contract": "contracts/relay/BitcoinRelayLogic.sol:BitcoinRelayLogic",
            "label": "parentHash",
            "offset": 0,
            "slot": "1",
            "type": "t_bytes32"
          },
          {
            "astId": 9554,
            "contract": "contracts/relay/BitcoinRelayLogic.sol:BitcoinRelayLogic",
            "label": "merkleRoot",
            "offset": 0,
            "slot": "2",
            "type": "t_bytes32"
          },
          {
            "astId": 9556,
            "contract": "contracts/relay/BitcoinRelayLogic.sol:BitcoinRelayLogic",
            "label": "relayer",
            "offset": 0,
            "slot": "3",
            "type": "t_address"
          },
          {
            "astId": 9558,
            "contract": "contracts/relay/BitcoinRelayLogic.sol:BitcoinRelayLogic",
            "label": "gasPrice",
            "offset": 0,
            "slot": "4",
            "type": "t_uint256"
          }
        ],
        "numberOfBytes": "160"
      },
      "t_uint256": {
        "encoding": "inplace",
        "label": "uint256",
        "numberOfBytes": "32"
      },
      "t_uint8": {
        "encoding": "inplace",
        "label": "uint8",
        "numberOfBytes": "1"
      }
    }
  }
}